:020000040800F2
:1000000000200020E50A0008350B0008350B000829
:1000100000000000000000000000000000000000E0
:10002000000000000000000000000000350B000888
:100030000000000000000000350B0008350B000830
:10004000350B000800000000350B0008350B0008D8
:10005000350B0008350B0008350B0008350B000880
:1000600000000000350B0008350B0008350B0008B8
:10007000350B0008350B0008350B000800000000A8
:10008000350B0008350B000800000000350B000898
:10009000350B0008350B0008350B0008350B000840
:1000A000350B0008350B0008350B0008350B000830
:1000B000350B0008000000000000000000000000F8
:1000C00010B5064C2378002B07D1054B002B02D02E
:1000D000044800E000BF0123237010BD500400203D
:1000E0000000000058160008084B10B5002B03D084
:1000F0000749084800E000BF07480368002B00D10B
:1001000010BD064B002BFBD09847F9E7000000001C
:1001100054040020581600084C0400200000000081
:1001200080B500AF1B4B1B4A5269802109030A436B
:100130005A61194B184A126818490A401A60164B3E
:10014000154A1268AA21C9020A431A60124B124AC0
:10015000526813490A405A600F4B0F4A52685A605E
:100160000D4B0D4A92680D490A409A600A4B0A4AA3
:100170009268FF2109030A439A60074B064AD26836
:1001800006490A40DA60044B034AD268DA60C04686
:10019000BD4680BD0010024000080048FF0FF0FF80
:1001A0003FFCFFFF80B500AF1B4B1B4A526980210B
:1001B000C9020A435A61194B184A12681202120AFC
:1001C0001A60164B154A1268AA21C9050A431A601B
:1001D000124B124A5268120112095A600F4B0F4A11
:1001E00052685A600D4B0D4A92681202120A9A60C8
:1001F0000A4B0A4A9268FF2109060A439A60074B94
:10020000064AD2681202120ADA60044B034AD26824
:10021000DA60C046BD4680BD0010024000040048C0
:1002200080B500AF234B234A5269802189020A43DB
:100230005A619023DB059022D20512681E490A40BC
:100240001A609023DB059022D2051268A821490389
:100250000A431A609023DB059022D20552681749A1
:100260000A405A609023DB059022D20552685A60FA
:100270009023DB059022D20592680F490A409A60CC
:100280009023DB059022D2059268FC2189030A4362
:100290009A609023DB059022D205D26806490A4075
:1002A000DA609023DB059022D205D268DA60C0467E
:1002B000BD4680BD00100240FFFFC0FFFFF8FFFFFA
:1002C00080B584B000AF78600023FB600023FB6042
:1002D00002E0FB680133FB60FA687B689A42F8DB56
:1002E000C046BD4604B080BD80B584B000AFF860A4
:1002F000B960FB1D1A70FB1D1B78002B09D0FB6831
:100300009B690121BA6891400A001A43FB689A610F
:1003100008E0FB689B6A0121BA6891400A001A4311
:10032000FB689A62C046BD4604B080BD80B500AF90
:10033000044B01220E211800FFF7D6FFC046BD4630
:1003400080BDC0460004004880B500AF044B0022C9
:100350000E211800FFF7C8FFC046BD4680BDC0464D
:100360000004004880B500AF044B00220D211800A6
:10037000FFF7BAFFC046BD4680BDC0460004004836
:1003800080B500AF044B01220D211800FFF7ACFF30
:10039000C046BD4680BDC0460004004880B500AFE1
:1003A000044B00220C211800FFF79EFFC046BD46FB
:1003B00080BDC0460004004880B500AF044B012258
:1003C0000C211800FFF790FFC046BD4680BDC04617
:1003D0000004004880B582B000AF0200FB1D1A7017
:1003E000FB1D1B7801221340DBB229481A000F21A4
:1003F000FFF77AFFFB1D1B7802221340DBB2254872
:100400001A000621FFF770FFFB1D1B780422134022
:10041000DBB220481A000721FFF766FFFB1D1B789F
:1004200008221340DBB21B481A000821FFF75CFFCB
:10043000FB1D1B7810221340DBB216481A0009215D
:10044000FFF752FFFB1D1B7820221340DAB29023E6
:10045000DB0508211800FFF747FFFB1D1B78402232
:100460001340DAB29023DB0509211800FFF73CFFA7
:10047000FB1D1B787F229343DAB29023DB050A2110
:100480001800FFF731FFC046BD4602B080BDC04630
:10049000000400480008004880B582B000AF0200A8
:1004A000FB1D1A70FFF75EFFFFF786FFC8239B0056
:1004B0001800FFF705FFFFF739FFFB1D1B78180039
:1004C000FFF788FFC823DB001800FFF7F9FEFFF7EE
:1004D0003BFFC823DB001800FFF7F2FEC046BD4615
:1004E00002B080BD80B582B000AF0200FB1D1A7063
:1004F000FFF738FFFFF752FFC8239B001800FFF7F4
:10050000DFFEFFF713FFFB1D1B781800FFF762FFEC
:10051000C823DB001800FFF7D3FEFFF715FFC82341
:10052000DB001800FFF7CCFEC046BD4602B080BD20
:1005300080B582B000AF786006E07B685A1C7A60B4
:100540001B781800FFF7A8FF7B681B78002BF4D1FD
:10055000C046BD4602B080BD80B582B000AF7860B5
:100560007B68092B14D85F4B20221A705D4B202228
:100570005A705C4B20229A707B680A21180000F0A8
:1005800061FB0B00DBB23033DAB2564BDA709FE01E
:100590007B68632B21D8534B20221A70514B2022A9
:1005A0005A707B680A21180000F0C6FA03000A217D
:1005B000180000F047FB0B00DBB23033DAB2494BD6
:1005C0009A707B680A21180000F03CFB0B00DBB23C
:1005D0003033DAB2434BDA707AE07B68424A9342B6
:1005E0002ED8404B20221A707B686421180000F03E
:1005F000A3FA03000A21180000F024FB0B00DBB271
:100600003033DAB2374B5A707B680A21180000F099
:1006100093FA03000A21180000F014FB0B00DBB270
:100620003033DAB22F4B9A707B680A21180000F041
:1006300009FB0B00DBB23033DAB22A4BDA7047E049
:100640007B682A4A934237D87A68FA2399001000C7
:1006500000F072FA0300DBB23033DAB2214B1A70C9
:100660007B686421180000F067FA03000A21180073
:1006700000F0E8FA0B00DBB23033DAB2194B5A70F3
:100680007B680A21180000F057FA03000A211800BD
:1006900000F0D8FA0B00DBB23033DAB2114B9A70AB
:1006A0007B680A21180000F0CDFA0B00DBB2303372
:1006B000DAB20C4BDA700BE00A4B2A221A70094BA3
:1006C0002A225A70074B2A229A70064B2A22DA7085
:1006D000044B20221A71034B00225A71C046BD46BA
:1006E00002B080BD6C040020E70300000F2700006B
:1006F00080B582B000AF78607B681800FFF72CFFF0
:10070000034B1800FFF714FFC046BD4602B080BD82
:100710006C04002090B583B000AF786039603B680E
:10072000002B01D1012329E03B680122134011D1A4
:100730003B685A087B6811001800FFF7EBFF0400C4
:100740003B685A087B6811001800FFF7E3FF0300BD
:10075000634313E03B685A087B6811001800FFF7F9
:10076000D9FF02007B6853431C003B685A087B6832
:1007700011001800FFF7CEFF030063431800BD46C9
:1007800003B090BD80B586B000AF786039600023BB
:100790007B613B68013B3B6118E07B697A68D31859
:1007A0001B78FB607B697A68D3183A6979688A1884
:1007B00012781A703B697A68D318FA68D2B21A7044
:1007C0007B6901337B613B69013B3B617A693B6932
:1007D0009A42E2DBC046BD4606B080BD90B587B008
:1007E00000AFF860B9607A6000237B6116E07B6936
:1007F0005A1C7A611A00BB689C18FB680A21180011
:1008000000F00AFB0B00DBB23033DBB22370FB6875
:100810000A21180000F01AFA0300FB60FB68002BA5
:10082000E5D107E07B695A1C7A611A00BB689B1806
:1008300030221A707A697B689A42F3DB7A69BB6866
:1008400011001800FFF79EFF7B69BA68D3180022D9
:100850001A707B691800BD4607B090BD80B586B0A0
:1008600000AF7860786800F077FD03007B617869FD
:1008700000F094FD031C191C786800F0E7FB031CD2
:100880003B611B497B6900221800FFF7A7FF0300AB
:10089000FB60184B1B68002B21D0154AFB68D3184E
:1008A0002E221A70134B1B6819000A20FFF732FF23
:1008B0000300180000F072FD031C191C386900F0D9
:1008C000B1FA031C3B61386900F046FDFB685A1C15
:1008D000074BD118074B1B681A00FFF77FFF044B2B
:1008E0001800FFF725FEC046BD4606B080BDC046D5
:1008F000740400200000002080B500AF044B1800F5
:10090000FFF7DEFC0120FFF7EDFDC046BD4680BDD0
:10091000400D030080B500AF0120FFF7E3FD02208A
:10092000FFF7E0FD3820FFF7DDFD0620FFF7DAFDD9
:100930000620FFF7D7FD094B1800FFF7F9FDC0208F
:10094000FFF7D0FD064B1800FFF7F2FD054B18002E
:10095000FFF7B6FCC046BD4680BDC046F81500088E
:100960000416000800350C0080B500AFFFF758FCF6
:10097000FFF718FCFFF7D4FBFFF7CCFF00231800AC
:10098000BD4680BD80B500AF1A4B1A4A12680121DE
:100990000A431A60174B174A526817490A405A60AF
:1009A000144B144A126815490A401A60114B114A37
:1009B000126813490A401A600E4B0E4A52681149D8
:1009C0000A405A600B4B0B4AD26A0F218A43DA6203
:1009D000084B084A126B0C490A401A63054B054A3A
:1009E000526B01218A435A63024B00229A60C0462F
:1009F000BD4680BD001002400CB8FF08FFFFF6FEA8
:100A0000FFFFFBFFFFFFC0FFECFEFFFF80B584B0E0
:100A100000AF0023FB600023BB6000237B6000234A
:100A20003B602B4B5B680C221340FB60FB68042B84
:100A300007D0082B09D0002B33D1264B264A1A6049
:100A400033E0244B244A1A602FE0214B5A68F023EC
:100A50009B031340BB601E4B5A6880235B0213400C
:100A60007B60BB689B0C0233BB60194BDB6A0F22B7
:100A7000134001333B607A6880235B029A420AD1BB
:100A80003968154800F058F803001A00BB685A434B
:100A9000104B1A6009E0BB68104A5A430D4B1A60AC
:100AA00003E00C4B0C4A1A60C046094B5B68F0220D
:100AB00013401B090A4AD35CDBB2FB60054B1A6882
:100AC000FB68DA40034B1A60C046BD4604B080BDE7
:100AD000001002400400002000127A0000093D00CE
:100AE000080000200D488546002103E00C4B5B58B0
:100AF000435004310B480C4B42189A42F6D30B4A30
:100B000002E0002313600432094B9A42F9D3FFF745
:100B100039FF00F0A9FCFFF727FFFEE700200020C7
:100B20005816000800000020500400205004002047
:100B300080040020FEE70000002243088B4274D3AB
:100B400003098B425FD3030A8B4244D3030B8B42CE
:100B500028D3030C8B420DD3FF22090212BA030CD7
:100B60008B4202D31212090265D0030B8B4219D3B8
:100B700000E0090AC30B8B4201D3CB03C01A5241D8
:100B8000830B8B4201D38B03C01A5241430B8B4220
:100B900001D34B03C01A5241030B8B4201D30B0309
:100BA000C01A5241C30A8B4201D3CB02C01A524130
:100BB000830A8B4201D38B02C01A5241430A8B42F3
:100BC00001D34B02C01A5241030A8B4201D30B02DC
:100BD000C01A5241CDD2C3098B4201D3CB01C01AF6
:100BE000524183098B4201D38B01C01A5241430900
:100BF0008B4201D34B01C01A524103098B4201D3EE
:100C00000B01C01A5241C3088B4201D3CB00C01A5A
:100C1000524183088B4201D38B00C01A52414308D2
:100C20008B4201D34B00C01A5241411A00D20146F7
:100C3000524110467047FFE701B5002000F0F0F880
:100C400002BDC0460029F7D076E7704703460B4344
:100C50007FD4002243088B4274D303098B425FD3B5
:100C6000030A8B4244D3030B8B4228D3030C8B42E1
:100C70000DD3FF22090212BA030C8B4202D31212C7
:100C8000090265D0030B8B4219D300E0090AC30B9C
:100C90008B4201D3CB03C01A5241830B8B4201D349
:100CA0008B03C01A5241430B8B4201D34B03C01A32
:100CB0005241030B8B4201D30B03C01A5241C30AAA
:100CC0008B4201D3CB02C01A5241830A8B4201D31B
:100CD0008B02C01A5241430A8B4201D34B02C01A05
:100CE0005241030A8B4201D30B02C01A5241CDD2AA
:100CF000C3098B4201D3CB01C01A524183098B42F5
:100D000001D38B01C01A524143098B4201D34B01DD
:100D1000C01A524103098B4201D30B01C01A524140
:100D2000C3088B4201D3CB00C01A524183088B42C7
:100D300001D38B00C01A524143088B4201D34B00B0
:100D4000C01A5241411A00D2014652411046704722
:100D50005DE0CA0F00D04942031000D34042534027
:100D600000229C4603098B422DD3030A8B4212D3E7
:100D7000FC22890112BA030A8B420CD38901921119
:100D80008B4208D3890192118B4204D389013AD056
:100D9000921100E08909C3098B4201D3CB01C01A2B
:100DA000524183098B4201D38B01C01A524143093E
:100DB0008B4201D34B01C01A524103098B4201D32C
:100DC0000B01C01A5241C3088B4201D3CB00C01A99
:100DD000524183088B4201D38B00C01A5241D9D2B1
:100DE00043088B4201D34B00C01A5241411A00D232
:100DF0000146634652415B10104601D34042002B2E
:100E000000D54942704763465B1000D3404201B5AC
:100E1000002000F005F802BD0029F8D016E7704761
:100E20007047C046F0B557464E4645464300E0B4CD
:100E300046028846760A1F0EC40F002F47D0FF2FA8
:100E400025D0002380259A469946F600ED042E43CE
:100E50007F3F434642465D02D20F5B006D0A1B0E88
:100E6000904640D0FF2B39D080220020ED00D204E4
:100E700015437F3BFB1842465746591C62408C463F
:100E800007430F2F5CD86F49BF00C9598F46002E0A
:100E900045D108239A46063B9946DAE7424602289E
:100EA0002DD0032800D1C3E0012800D0A2E0002506
:100EB00000260240D4B27602ED05760A2E43E407FE
:100EC000264330001CBC90469946A246F0BD002E39
:100ED0001AD104239A46033B9946BAE72A00511EC9
:100EE0008A41901CC6E70120002DC3D0280000F0E5
:100EF0009DFA431F76309D4043420020BAE701240B
:100F0000FF2514400026D6E7300000F08FFA431F7B
:100F10009E400023763047429A46994699E70C2333
:100F20009A46093B994694E780260024F603FF255C
:100F3000C1E735004846B2E7350022004846AEE733
:100F40002904090C0800370C3604360C2C0C7943A4
:100F5000704367437443060C64183619B14203D9D1
:100F600080214902884647440004000C31040918D6
:100F70008D01681E8541890E2943350CED19AD019F
:100F80000D43290104D5012369081D4063460D4323
:100F900019007F31002925DD680704D00F20284083
:100FA000042800D00435280103D5274980330D409B
:100FB0001900FE29A3DC0124AD016E0A1440CDB254
:100FC00079E78020C003064207D0054205D12843B7
:100FD0004602760A4446FF256DE706437602760A06
:100FE000FF2568E70124611A1B2905DD144000254F
:100FF000002660E76346CBE72E002023CE40591A37
:101000008D406B1E9D412E43730704D00F23334048
:10101000042B00D00436730104D5012401251440AB
:10102000002648E70124B601760A1440002542E76D
:1010300080260124F6032E437602760A1440FF250B
:1010400039E7C04614160008FFFFFFF7F8B54A025B
:101050004E0043024400240EC50F9B09360EC90FF3
:101060009209FF2E00D183E001204140A01BA9423C
:101070005CD0002800DC95E0002E1CD1002A00D0B6
:1010800081E05A0704D00F221A40042A00D004330A
:101090005A013BD50134FF2C00D191E001209B0186
:1010A0005B0AE4B205405B02E4055B0AED072343FB
:1010B0002B431800F8BDFF2CE3D08021C9040A435C
:1010C0001B2800DD90E016002021C640081A82404F
:1010D000511E8A4132439B1A5A0115D59B019E0924
:1010E000300000F0A3F90538864084426CDC041B14
:1010F000330020200134E340041BA640721E9641B9
:1011000000243343BDE70D005A07BCD1DF0801239B
:101110001D40FF2C33D1002F00D190E08022D2035C
:1011200013003B435B025B0AFF24BCE700284FDD52
:10113000002E2ED0FF2CA4D08025ED042A431B289E
:1011400000DD97E016002025C640281A8240501E78
:10115000824132439B185A01D5D50134FF2C6DD002
:1011600001227B481A405B08034013430D0088E7C7
:10117000002A00D07AE777E7031EC5D100257B025D
:101180005B0AE4B28FE701380028A4D0FF2C97D186
:1011900077E7002A00D174E701380028DAD0FF2C65
:1011A000CDD16EE7002821D1601CC0B2012858DDE6
:1011B00080279E1AFF0437402FD0D61A0D008FE7E4
:1011C00001231D4000236EE7624B241A334058E789
:1011D000002851D1601CC6B2012E33DDFF282DD06E
:1011E0009B185B0804004CE7012274E7002C1AD01E
:1011F000FF2E1FD08024E404404223431B2800DD3F
:1012000096E01D002024C540201A8340581E8341CB
:101210002B43D31A34000D005EE7002E00D05FE7A9
:1012200000250024ABE7002B44D0C0430028F0D0B9
:10123000FF2EE3D11300FF240D0022E70D00FF2451
:10124000002330E7002C5DD1002B7DD0002A00D197
:1012500017E79B185A0100D456E73E4A0400134092
:101260000FE7002C1ED1002B2FD1002A65D01300D0
:101270000D0006E701226DE7002C1FD1002B59D08D
:10128000C04300280BD0FF2E4FD01B285EDC1D0072
:101290002024C540201A8340581E83412B439B18AD
:1012A000340058E7002B1CD1002A49D013000D0050
:1012B000FF24E6E6130034000D00E2E6FF2E34D0F2
:1012C0008024E40440422343DFE7002A00D1D8E62B
:1012D0008027981AFF04074000D14DE7D31A0D006C
:1012E000CFE6FF24002A00D1CBE68020DB08C00334
:1012F000034204D0D208024201D113000D00DB00EA
:10130000FF24BEE6002B10D0FF24002A00D1B8E64F
:101310008020DB08C003034203D0D208024200D180
:101320001300DB000D00FF24ABE61300FF24A8E64A
:1013300001236EE713003400A3E6002700251EE713
:1013400080270025FF03E9E613009AE60123A6E7BC
:10135000FFFFFF7DFFFFFFFB4302590A4300C20F5F
:101360001B0E00207E2B0EDD9D2B0DDC802000044B
:101370000143952B0BDC9620C31AD9400B00584231
:10138000002A00D118007047034BD018FBE7963BAA
:1013900099400B00F3E7C046FFFFFF7F70B50028C0
:1013A00030D0C317C5185D40C40F280000F03EF8C8
:1013B0009E231B1A962B0DDC9622D21A95406A02A8
:1013C000520AD8B25202C005520AE407024322432D
:1013D000100070BD992B19DC9922D21A9540124A3F
:1013E0002A40690704D00F210D40042D00D004329B
:1013F000510103D50C4B1A409F231B1A9201520A2C
:10140000D8B2DFE7002400200022DBE705222E000F
:10141000121AB921D6402A00C91A8A40551EAA417B
:1014200035001543DBE7C046FFFFFFFB1C2101230E
:101430001B04984201D3000C10391B0A984201D3B7
:10144000000A08391B09984201D30009043902A295
:10145000105C40187047C0460403020201010101FC
:10146000000000000000000070B50D4E0D4D00247E
:10147000AD1BAD1005D0A300F35801349847A54229
:10148000F9D100F0ADF8084E084D0024AD1BAD10A9
:1014900005D0A300F35801349847A542F9D170BD97
:1014A00040040020400400204004002048040020A4
:1014B000034B10B5002B02D0024800F005F810BD18
:1014C00000000000D914000810B50100002300221C
:1014D000002000F01BF810BD70B5094B094CE41A50
:1014E000A41009D0084AA518AD00ED182B68013CDE
:1014F0009847043D002CF9D100F078F870BDC04643
:10150000480400204C040020FFFFFF3FF8B544468C
:101510005F4656464D469B462F4BF0B41C68A423AD
:101520005B000500E0580E00904600284BD0436851
:101530001F2B0DDC5C1C002D21D102339B0044606D
:101540001E5000203CBC90469946A246AB46F8BDD2
:10155000224B002B3CD0C820400000E000BF0028F8
:1015600036D0A42200235200A15843600160A0504D
:1015700040328350043283500124002DDDD09A0084
:1015800091468144424688214F467A50C4225200F7
:101590009046804442468739994012688A460A43F9
:1015A0009446424661461160842249465F46520095
:1015B0008F50022DC1D1020055468D32FF32116885
:1015C0000D431560B9E720004D30FF30E050AEE725
:1015D00001204042B6E7C046541600080000000053
:1015E000F8B5C046F8BC08BC9E467047F8B5C04682
:1015F000F8BC08BC9E4670472020202057656C63CD
:101600006F6D650020204C6175726F2043616272BE
:10161000616C2000400F00089E0E00089E0E00081E
:101620009C0E0008320F0008320F0008280F000837
:101630009C0E0008320F0008280F0008320F000827
:101640009C0E0008380F0008380F0008380F0008FB
:08165000C20F00081800002081
:101658000300000000127A000000000000000000F3
:101668000102030406070809000000000403002023
:101678006C030020D40300200000000000000000DC
:101688000000000000000000000000000000000052
:101698000000000000000000000000000000000042
:1016A8000000000000000000000000000000000032
:1016B8000000000000000000000000000000000022
:1016C8000000000000000000000000000000000012
:1016D8000000000000000000000000000000000002
:1016E80000000000000000000000000000000000F2
:1016F80000000000000000000000000000000000E2
:1017080000000000000000000000000000000000D1
:1017180001000000000000000E33CDAB34126DE66E
:10172800ECDE05000B0000000000000000000000D7
:1017380000000000000000000000000000000000A1
:101748000000000000000000000000000000000091
:101758000000000000000000000000000000000081
:101768000000000000000000000000000000000071
:101A9800B1140008E9000008C100000800000000B7
:0400000508000000EF
:00000001FF
