:020000040800F2
:100000000020002061030008B1030008B1030008CC
:1000100000000000000000000000000000000000E0
:10002000000000000000000000000000B103000814
:100030000000000000000000B1030008B103000848
:10004000B103000800000000B1030008B10300087C
:10005000B1030008B1030008B1030008B1030008B0
:1000600000000000B1030008B1030008B10300085C
:10007000B1030008B1030008B1030008000000004C
:10008000B1030008B103000800000000B10300083C
:10009000B1030008B1030008B1030008B103000870
:1000A000B1030008B1030008B1030008B103000860
:1000B000B103000800000000000000000000000084
:1000C00010B5064C2378002B07D1054B002B02D02E
:1000D000044800E000BF0123237010BD500400203D
:1000E0000000000060060008084B10B5002B03D08C
:1000F0000749084800E000BF07480368002B00D10B
:1001000010BD064B002BFBD09847F9E7000000001C
:1001100054040020600600084C0400200000000089
:1001200080B584B000AF78600023FB6002E0FB681C
:100130000133FB60FA687B689A42F8DBC046BD4633
:1001400004B080BD80B500AF124B124A52698021C5
:1001500009030A435A61104B00221A600E4B0E4AE3
:1001600012680E490A431A600B4B0B4A52687F21F2
:100170008A435A60084B084A926809490A439A60C0
:10018000054B054AD268920B9203DA60C046BD4621
:1001900080BDC04600100240000800485515000010
:1001A000FF3F000080B582B000AF00237B6000F00D
:1001B00027F8FFF7C7FF7B685B000E4A134004D5A2
:1001C000013B80225242134301337B607B68002B4A
:1001D00001D101237B60084B7A689A61074B1800B4
:1001E000FFF79EFF044B7A689A62044B1800FFF7F2
:1001F00097FFE0E77F00008000080048A86100004A
:1002000080B500AF1A4B1A4A126801210A431A60DE
:10021000174B174A526817490A405A60144B144A40
:10022000126815490A401A60114B114A12681349A5
:100230000A401A600E4B0E4A526811490A405A6031
:100240000B4B0B4AD26A0F218A43DA62084B084AE9
:10025000126B0C490A401A63054B054A526B012187
:100260008A435A63024B00229A60C046BD4680BD55
:10027000001002400CB8FF08FFFFF6FEFFFFFBFF77
:10028000FFFFC0FFECFEFFFF80B584B000AF00238E
:10029000FB600023BB6000237B6000233B602B4B93
:1002A0005B680C221340FB60FB68042B07D0082B13
:1002B00009D0002B33D1264B264A1A6033E0244B59
:1002C000244A1A602FE0214B5A68F0239B03134005
:1002D000BB601E4B5A6880235B0213407B60BB6887
:1002E0009B0C0233BB60194BDB6A0F2213400133B6
:1002F0003B607A6880235B029A420AD139681548CC
:1003000000F058F803001A00BB685A43104B1A60FB
:1003100009E0BB68104A5A430D4B1A6003E00C4BCE
:100320000C4A1A60C046094B5B68F02213401B0957
:100330000A4AD35CDBB2FB60054B1A68FB68DA4003
:10034000034B1A60C046BD4604B080BD0010024099
:100350000000002000127A0000093D000400002087
:100360000D488546002103E00C4B5B584350043197
:100370000B480C4B42189A42F6D30B4A02E000237A
:1003800013600432094B9A42F9D3FFF739FF00F0AA
:100390009DF8FFF707FFFEE7002000206006000839
:1003A0000000002050040020500400206C040020B5
:1003B000FEE70000002243088B4274D303098B42FE
:1003C0005FD3030A8B4244D3030B8B4228D3030C25
:1003D0008B420DD3FF22090212BA030C8B4202D3C7
:1003E0001212090265D0030B8B4219D300E0090AEF
:1003F000C30B8B4201D3CB03C01A5241830B8B42F8
:1004000001D38B03C01A5241430B8B4201D34B03E0
:10041000C01A5241030B8B4201D30B03C01A524145
:10042000C30A8B4201D3CB02C01A5241830A8B42CA
:1004300001D38B02C01A5241430A8B4201D34B02B3
:10044000C01A5241030A8B4201D30B02C01A524117
:10045000CDD2C3098B4201D3CB01C01A52418309CB
:100460008B4201D38B01C01A524143098B4201D305
:100470004B01C01A524103098B4201D30B01C01A30
:100480005241C3088B4201D3CB00C01A52418308AA
:100490008B4201D38B00C01A524143088B4201D3D7
:1004A0004B00C01A5241411A00D201465241104637
:1004B0007047FFE701B5002000F006F802BDC04616
:1004C0000029F7D076E770477047C04670B50D4EEB
:1004D0000D4D0024AD1BAD1005D0A300F358013421
:1004E0009847A542F9D100F0ADF8084E084D002418
:1004F000AD1BAD1005D0A300F35801349847A542B9
:10050000F9D170BD400400204004002040040020C8
:1005100048040020034B10B5002B02D0024800F025
:1005200005F810BD000000003D05000810B50100F1
:1005300000230022002000F01BF810BD70B5094B0D
:10054000094CE41AA41009D0084AA518AD00ED180A
:100550002B68013C9847043D002CF9D100F078F855
:1005600070BDC046480400204C040020FFFFFF3F40
:10057000F8B544465F4656464D469B462F4BF0B471
:100580001C68A4235B000500E0580E00904600287C
:100590004BD043681F2B0DDC5C1C002D21D1023396
:1005A0009B0044601E5000203CBC90469946A246E9
:1005B000AB46F8BD224B002B3CD0C820400000E0E9
:1005C00000BF002836D0A42200235200A158436067
:1005D0000160A05040328350043283500124002D2A
:1005E000DDD09A0091468144424688214F467A5098
:1005F000C42252009046804442468739994012688E
:100600008A460A439446424661461160842249461E
:100610005F4652008F50022DC1D1020055468D32E7
:10062000FF3211680D431560B9E720004D30FF30EF
:10063000E050AEE701204042B6E7C0465C06000845
:1006400000000000F8B5C046F8BC08BC9E467047E4
:10065000F8B5C046F8BC08BC9E467047180000209C
:1006600000127A00000000000000000001020304F4
:100670000607080900000000000000000403002035
:100680006C030020D40300200000000000000000E4
:10069000000000000000000000000000000000005A
:1006A000000000000000000000000000000000004A
:1006B000000000000000000000000000000000003A
:1006C000000000000000000000000000000000002A
:1006D000000000000000000000000000000000001A
:1006E000000000000000000000000000000000000A
:1006F00000000000000000000000000000000000FA
:1007000000000000000000000000000000000000E9
:1007100000000000000000000000000000000000D9
:1007200001000000000000000E33CDAB34126DE676
:10073000ECDE05000B0000000000000000000000DF
:1007400000000000000000000000000000000000A9
:100750000000000000000000000000000000000099
:100760000000000000000000000000000000000089
:100770000000000000000000000000000000000079
:100AA00015050008E9000008C1000008000000006A
:0400000508000000EF
:00000001FF
