:020000040800F2
:1000000000200020450D0008950D0008950D000802
:1000100000000000000000000000000000000000E0
:10002000000000000000000000000000950D000826
:100030000000000000000000950D0008950D00086C
:10004000950D000800000000950D0008950D0008B2
:10005000950D0008950D0008950D0008950D0008F8
:1000600000000000950D0008950D0008950D000892
:10007000950D0008950D0008950D00080000000082
:10008000950D0008950D000800000000950D000872
:10009000950D0008950D0008950D0008950D0008B8
:1000A000950D0008950D0008950D0008950D0008A8
:1000B000950D000800000000000000000000000096
:1000C00010B5064C2378002B07D1054B002B02D02E
:1000D000044800E000BF0123237010BD500400203D
:1000E00000000000FC200008084B10B5002B03D0D6
:1000F0000749084800E000BF07480368002B00D10B
:1001000010BD064B002BFBD09847F9E7000000001C
:1001100054040020FC2000084C04002000000000D3
:1001200080B500AF1B4B1B4A5269802109030A436B
:100130005A61194B184A126818490A401A60164B3E
:10014000154A1268AA21C9020A431A60124B124AC0
:10015000526813490A405A600F4B0F4A52685A605E
:100160000D4B0D4A92680D490A409A600A4B0A4AA3
:100170009268FF2109030A439A60074B064AD26836
:1001800006490A40DA60044B034AD268DA60C04686
:10019000BD4680BD0010024000080048FF0FF0FF80
:1001A0003FFCFFFF80B500AF1B4B1B4A526980210B
:1001B000C9020A435A61194B184A12681202120AFC
:1001C0001A60164B154A1268AA21C9050A431A601B
:1001D000124B124A5268120112095A600F4B0F4A11
:1001E00052685A600D4B0D4A92681202120A9A60C8
:1001F0000A4B0A4A9268FF2109060A439A60074B94
:10020000064AD2681202120ADA60044B034AD26824
:10021000DA60C046BD4680BD0010024000040048C0
:1002200080B500AF234B234A5269802189020A43DB
:100230005A619023DB059022D20512681E490A40BC
:100240001A609023DB059022D2051268A821490389
:100250000A431A609023DB059022D20552681749A1
:100260000A405A609023DB059022D20552685A60FA
:100270009023DB059022D20592680F490A409A60CC
:100280009023DB059022D2059268FC2189030A4362
:100290009A609023DB059022D205D26806490A4075
:1002A000DA609023DB059022D205D268DA60C0467E
:1002B000BD4680BD00100240FFFFC0FFFFF8FFFFFA
:1002C00080B584B000AF78600023FB600023FB6042
:1002D00002E0FB680133FB60FA687B689A42F8DB56
:1002E000C046BD4604B080BD80B584B000AFF860A4
:1002F000B960FB1D1A70FB1D1B78002B09D0FB6831
:100300009B690121BA6891400A001A43FB689A610F
:1003100008E0FB689B6A0121BA6891400A001A4311
:10032000FB689A62C046BD4604B080BD80B500AF90
:10033000044B01220E211800FFF7D6FFC046BD4630
:1003400080BDC0460004004880B500AF044B0022C9
:100350000E211800FFF7C8FFC046BD4680BDC0464D
:100360000004004880B500AF044B00220D211800A6
:10037000FFF7BAFFC046BD4680BDC0460004004836
:1003800080B500AF044B01220D211800FFF7ACFF30
:10039000C046BD4680BDC0460004004880B500AFE1
:1003A000044B00220C211800FFF79EFFC046BD46FB
:1003B00080BDC0460004004880B500AF044B012258
:1003C0000C211800FFF790FFC046BD4680BDC04617
:1003D0000004004880B582B000AF0200FB1D1A7017
:1003E000FB1D1B7801221340DBB229481A000F21A4
:1003F000FFF77AFFFB1D1B7802221340DBB2254872
:100400001A000621FFF770FFFB1D1B780422134022
:10041000DBB220481A000721FFF766FFFB1D1B789F
:1004200008221340DBB21B481A000821FFF75CFFCB
:10043000FB1D1B7810221340DBB216481A0009215D
:10044000FFF752FFFB1D1B7820221340DAB29023E6
:10045000DB0508211800FFF747FFFB1D1B78402232
:100460001340DAB29023DB0509211800FFF73CFFA7
:10047000FB1D1B787F229343DAB29023DB050A2110
:100480001800FFF731FFC046BD4602B080BDC04630
:10049000000400480008004880B582B000AF0200A8
:1004A000FB1D1A70FFF75EFFFFF786FFC8239B0056
:1004B0001800FFF705FFFFF739FFFB1D1B78180039
:1004C000FFF788FFC823DB001800FFF7F9FEFFF7EE
:1004D0003BFFC823DB001800FFF7F2FEC046BD4615
:1004E00002B080BD80B582B000AF0200FB1D1A7063
:1004F000FFF738FFFFF752FFC8239B001800FFF7F4
:10050000DFFEFFF713FFFB1D1B781800FFF762FFEC
:10051000C823DB001800FFF7D3FEFFF715FFC82341
:10052000DB001800FFF7CCFEC046BD4602B080BD20
:1005300080B582B000AF786006E07B685A1C7A60B4
:100540001B781800FFF7A8FF7B681B78002BF4D1FD
:10055000C046BD4602B080BD80B582B000AF7860B5
:100560007B68092B14D85F4B20221A705D4B202228
:100570005A705C4B20229A707B680A21180000F0A8
:1005800091FC0B00DBB23033DAB2564BDA709FE0ED
:100590007B68632B21D8534B20221A70514B2022A9
:1005A0005A707B680A21180000F0F6FB03000A214C
:1005B000180000F077FC0B00DBB23033DAB2494BA5
:1005C0009A707B680A21180000F06CFC0B00DBB20B
:1005D0003033DAB2434BDA707AE07B68424A9342B6
:1005E0002ED8404B20221A707B686421180000F03E
:1005F000D3FB03000A21180000F054FC0B00DBB20F
:100600003033DAB2374B5A707B680A21180000F099
:10061000C3FB03000A21180000F044FC0B00DBB20E
:100620003033DAB22F4B9A707B680A21180000F041
:1006300039FC0B00DBB23033DAB22A4BDA7047E018
:100640007B682A4A934237D87A68FA2399001000C7
:1006500000F0A2FB0300DBB23033DAB2214B1A7098
:100660007B686421180000F097FB03000A21180042
:1006700000F018FC0B00DBB23033DAB2194B5A70C1
:100680007B680A21180000F087FB03000A2118008C
:1006900000F008FC0B00DBB23033DAB2114B9A7079
:1006A0007B680A21180000F0FDFB0B00DBB2303341
:1006B000DAB20C4BDA700BE00A4B2A221A70094BA3
:1006C0002A225A70074B2A229A70064B2A22DA7085
:1006D000044B20221A71034B00225A71C046BD46BA
:1006E00002B080BD6C040020E70300000F2700006B
:1006F00080B582B000AF78607B681800FFF72CFFF0
:10070000034B1800FFF714FFC046BD4602B080BD82
:100710006C04002090B583B000AF786039603B680E
:10072000002B01D1012329E03B680122134011D1A4
:100730003B685A087B6811001800FFF7EBFF0400C4
:100740003B685A087B6811001800FFF7E3FF0300BD
:10075000634313E03B685A087B6811001800FFF7F9
:10076000D9FF02007B6853431C003B685A087B6832
:1007700011001800FFF7CEFF030063431800BD46C9
:1007800003B090BD80B586B000AF786039600023BB
:100790007B613B68013B3B6118E07B697A68D31859
:1007A0001B78FB607B697A68D3183A6979688A1884
:1007B00012781A703B697A68D318FA68D2B21A7044
:1007C0007B6901337B613B69013B3B617A693B6932
:1007D0009A42E2DBC046BD4606B080BD90B587B008
:1007E00000AFF860B9607A6000237B6116E07B6936
:1007F0005A1C7A611A00BB689C18FB680A21180011
:1008000000F03AFC0B00DBB23033DBB22370FB6844
:100810000A21180000F04AFB0300FB60FB68002B74
:10082000E5D107E07B695A1C7A611A00BB689B1806
:1008300030221A707A697B689A42F3DB7A69BB6866
:1008400011001800FFF79EFF7B69BA68D3180022D9
:100850001A707B691800BD4607B090BD80B586B0A0
:1008600000AF7860786800F0A7FE03007B617869CC
:1008700000F0C4FE031C191C786800F017FD031C6F
:100880003B611B497B6900221800FFF7A7FF0300AB
:10089000FB60184B1B68002B21D0154AFB68D3184E
:1008A0002E221A70134B1B6819000A20FFF732FF23
:1008B0000300180000F0A2FE031C191C386900F0A8
:1008C000E1FB031C3B61386900F076FEFB685A1CB3
:1008D000074BD118074B1B681A00FFF77FFF044B2B
:1008E0001800FFF725FEC046BD4606B080BDC046D5
:1008F000700400200000002080B500AF044B1800F9
:10090000FFF7DEFC0120FFF7EDFDC046BD4680BDD0
:10091000400D030080B500AF0120FFF7E3FD02208A
:10092000FFF7E0FD3820FFF7DDFD0C20FFF7DAFDD3
:100930000620FFF7D7FD094B1800FFF7F9FDC0208F
:10094000FFF7D0FD064B1800FFF7F2FD054B18002E
:10095000FFF7B6FCC046BD4680BDC0464420000837
:100960005020000800350C0080B582B000AF0200B6
:10097000FB1D1A70BB1D0A1C1A70BB1D1B78282298
:100980005343DAB2FB1D1B78D318DBB2803BDBB2DA
:100990001800FFF7A7FDC046BD4602B080BDC046A7
:1009A00080B584B000AF78607B68962252005A43CD
:1009B000A5235900100000F079FA03001A000F4B2C
:1009C0001B88D31AFB60FA6813009B009B181B015D
:1009D000FB600B4B1B881A00084B1B88D31A1900AD
:1009E000F86800F063FA0300FB60FB681E33FB60ED
:1009F000FB681800BD4604B080BDC046B8F7FF1FB5
:100A0000C2F7FF1F90B585B000AF78607B68203BD0
:100A1000180000F0F3FD031C181C01F04DF9084A02
:100A2000084B00F033FE03000C001800210001F019
:100A300097F9031CFB60FB68181CBD4605B090BD10
:100A4000CDCCCCCCCCCCFC3F80B598B000AF002353
:100A5000FB650023BB6500237B65FFF7E1FBFFF728
:100A6000A1FBFFF75DFBFFF755FF584B574A926814
:100A700001218A439A60554B544A926880210906A5
:100A80000A439A60C046514B9B68002BFBDB504BDE
:100A90004F4A9269802189000A439A614C4B4C4A23
:100AA000526B01210A435A63C046494B5B6B0222D9
:100AB0001340FAD0454B454A926801210A439A6097
:100AC000444B444A1268802109040A431A60C04614
:100AD0003E4B1B6801221340FAD03C4B3B4A526903
:100AE00007210A435A61394B384A926A80214902E8
:100AF0000A439A62374B374A12688021C9030A4376
:100B00001A60FFF7F9FE344B1800FFF711FD2F4B69
:100B10002E4A926804210A439A60C0462B4B1B68F8
:100B200004221340FAD0294B1B6C1800FFF738FF42
:100B300001003B00BA6D9200D1503B00BA6D9200AB
:100B4000D358FA6DD318FB65B96DF86D00F0AEF9A6
:100B5000030001337B657B6D1800FFF753FF031C17
:100B60003B6501210020FFF7FFFE184B1B6C1800AE
:100B7000FFF716FF03001800FFF7BAFD012104205C
:100B8000FFF7F2FEDF20FFF787FC144B1800FFF79A
:100B9000CFFC01210720FFF7E7FE3B6D181CFFF794
:100BA0005DFE01210C20FFF7DFFEDF20FFF774FC64
:100BB0000B4B1800FFF7BCFCBB6D0133BB65BB6D75
:100BC000132BA4DD0023BB65A1E7C0460024014030
:100BD0000010024008270140602000087020000833
:100BE0007420000880B500AF1A4B1A4A1268012120
:100BF0000A431A60174B174A526817490A405A604D
:100C0000144B144A126815490A401A60114B114AD4
:100C1000126813490A401A600E4B0E4A5268114975
:100C20000A405A600B4B0B4AD26A0F218A43DA62A0
:100C3000084B084A126B0C490A401A63054B054AD7
:100C4000526B01218A435A63024B00229A60C046CC
:100C5000BD4680BD001002400CB8FF08FFFFF6FE45
:100C6000FFFFFBFFFFFFC0FFECFEFFFF80B584B07E
:100C700000AF0023FB600023BB6000237B600023E8
:100C80003B602B4B5B680C221340FB60FB68042B22
:100C900007D0082B09D0002B33D1264B264A1A60E7
:100CA00033E0244B244A1A602FE0214B5A68F0238A
:100CB0009B031340BB601E4B5A6880235B021340AA
:100CC0007B60BB689B0C0233BB60194BDB6A0F2255
:100CD000134001333B607A6880235B029A420AD159
:100CE0003968154800F058F803001A00BB685A43E9
:100CF000104B1A6009E0BB68104A5A430D4B1A604A
:100D000003E00C4B0C4A1A60C046094B5B68F022AA
:100D100013401B090A4AD35CDBB2FB60054B1A681F
:100D2000FB68DA40034B1A60C046BD4604B080BD84
:100D3000001002400400002000127A0000093D006B
:100D4000080000200D488546002103E00C4B5B584D
:100D5000435004310B480C4B42189A42F6D30B4ACD
:100D600002E0002313600432094B9A42F9D3FFF7E3
:100D700039FF01F09FF8FFF767FEFEE70020002033
:100D8000FC20000800000020500400205004002037
:100D900074040020FEE70000002243088B4274D355
:100DA00003098B425FD3030A8B4244D3030B8B426C
:100DB00028D3030C8B420DD3FF22090212BA030C75
:100DC0008B4202D31212090265D0030B8B4219D356
:100DD00000E0090AC30B8B4201D3CB03C01A524176
:100DE000830B8B4201D38B03C01A5241430B8B42BE
:100DF00001D34B03C01A5241030B8B4201D30B03A7
:100E0000C01A5241C30A8B4201D3CB02C01A5241CD
:100E1000830A8B4201D38B02C01A5241430A8B4290
:100E200001D34B02C01A5241030A8B4201D30B0279
:100E3000C01A5241CDD2C3098B4201D3CB01C01A93
:100E4000524183098B4201D38B01C01A524143099D
:100E50008B4201D34B01C01A524103098B4201D38B
:100E60000B01C01A5241C3088B4201D3CB00C01AF8
:100E7000524183088B4201D38B00C01A5241430870
:100E80008B4201D34B00C01A5241411A00D2014695
:100E9000524110467047FFE701B5002000F0F0F81E
:100EA00002BDC0460029F7D076E7704703460B43E2
:100EB0007FD4002243088B4274D303098B425FD353
:100EC000030A8B4244D3030B8B4228D3030C8B427F
:100ED0000DD3FF22090212BA030C8B4202D3121265
:100EE000090265D0030B8B4219D300E0090AC30B3A
:100EF0008B4201D3CB03C01A5241830B8B4201D3E7
:100F00008B03C01A5241430B8B4201D34B03C01ACF
:100F10005241030B8B4201D30B03C01A5241C30A47
:100F20008B4201D3CB02C01A5241830A8B4201D3B8
:100F30008B02C01A5241430A8B4201D34B02C01AA2
:100F40005241030A8B4201D30B02C01A5241CDD247
:100F5000C3098B4201D3CB01C01A524183098B4292
:100F600001D38B01C01A524143098B4201D34B017B
:100F7000C01A524103098B4201D30B01C01A5241DE
:100F8000C3088B4201D3CB00C01A524183088B4265
:100F900001D38B00C01A524143088B4201D34B004E
:100FA000C01A5241411A00D20146524110467047C0
:100FB0005DE0CA0F00D04942031000D340425340C5
:100FC00000229C4603098B422DD3030A8B4212D385
:100FD000FC22890112BA030A8B420CD389019211B7
:100FE0008B4208D3890192118B4204D389013AD0F4
:100FF000921100E08909C3098B4201D3CB01C01AC9
:10100000524183098B4201D38B01C01A52414309DB
:101010008B4201D34B01C01A524103098B4201D3C9
:101020000B01C01A5241C3088B4201D3CB00C01A36
:10103000524183088B4201D38B00C01A5241D9D24E
:1010400043088B4201D34B00C01A5241411A00D2CF
:101050000146634652415B10104601D34042002BCB
:1010600000D54942704763465B1000D3404201B54A
:10107000002000F005F802BD0029F8D016E77047FF
:101080007047C046F0B557464E4645464300E0B46B
:1010900046028846760A1F0EC40F002F47D0FF2F46
:1010A00025D0002380259A469946F600ED042E436C
:1010B0007F3F434642465D02D20F5B006D0A1B0E26
:1010C000904640D0FF2B39D080220020ED00D20482
:1010D00015437F3BFB1842465746591C62408C46DD
:1010E00007430F2F5CD86F49BF00C9598F46002EA8
:1010F00045D108239A46063B9946DAE7424602283C
:101100002DD0032800D1C3E0012800D0A2E00025A3
:1011100000260240D4B27602ED05760A2E43E4079B
:10112000264330001CBC90469946A246F0BD002ED6
:101130001AD104239A46033B9946BAE72A00511E66
:101140008A41901CC6E70120002DC3D0280000F082
:1011500093FE431F76309D4043420020BAE70124AE
:10116000FF2514400026D6E7300000F085FE431F1F
:101170009E400023763047429A46994699E70C23D1
:101180009A46093B994694E780260024F603FF25FA
:10119000C1E735004846B2E7350022004846AEE7D1
:1011A0002904090C0800370C3604360C2C0C794342
:1011B000704367437443060C64183619B14203D96F
:1011C00080214902884647440004000C3104091874
:1011D0008D01681E8541890E2943350CED19AD013D
:1011E0000D43290104D5012369081D4063460D43C1
:1011F00019007F31002925DD680704D00F20284021
:10120000042800D00435280103D5274980330D4038
:101210001900FE29A3DC0124AD016E0A1440CDB2F1
:1012200079E78020C003064207D0054205D1284354
:101230004602760A4446FF256DE706437602760AA3
:10124000FF2568E70124611A1B2905DD14400025EC
:10125000002660E76346CBE72E002023CE40591AD4
:101260008D406B1E9D412E43730704D00F233340E6
:10127000042B00D00436730104D501240125144049
:10128000002648E70124B601760A1440002542E70B
:1012900080260124F6032E437602760A1440FF25A9
:1012A00039E7C04678200008FFFFFFF7F8B54A028B
:1012B0004E0043024400240EC50F9B09360EC90F91
:1012C0009209FF2E00D183E001204140A01BA942DA
:1012D0005CD0002800DC95E0002E1CD1002A00D054
:1012E00081E05A0704D00F221A40042A00D00433A8
:1012F0005A013BD50134FF2C00D191E001209B0124
:101300005B0AE4B205405B02E4055B0AED07234398
:101310002B431800F8BDFF2CE3D08021C9040A43F9
:101320001B2800DD90E016002021C640081A8240EC
:10133000511E8A4132439B1A5A0115D59B019E09C1
:10134000300000F099FD0538864084426CDC041BB7
:10135000330020200134E340041BA640721E964156
:1013600000243343BDE70D005A07BCD1DF08012339
:101370001D40FF2C33D1002F00D190E08022D203FA
:1013800013003B435B025B0AFF24BCE700284FDDF0
:10139000002E2ED0FF2CA4D08025ED042A431B283C
:1013A00000DD97E016002025C640281A8240501E16
:1013B000824132439B185A01D5D50134FF2C6DD0A0
:1013C00001227B481A405B08034013430D0088E765
:1013D000002A00D07AE777E7031EC5D100257B02FB
:1013E0005B0AE4B28FE701380028A4D0FF2C97D124
:1013F00077E7002A00D174E701380028DAD0FF2C03
:10140000CDD16EE7002821D1601CC0B2012858DD83
:1014100080279E1AFF0437402FD0D61A0D008FE781
:1014200001231D4000236EE7624B241A334058E726
:10143000002851D1601CC6B2012E33DDFF282DD00B
:101440009B185B0804004CE7012274E7002C1AD0BB
:10145000FF2E1FD08024E404404223431B2800DDDC
:1014600096E01D002024C540201A8340581E834169
:101470002B43D31A34000D005EE7002E00D05FE747
:1014800000250024ABE7002B44D0C0430028F0D057
:10149000FF2EE3D11300FF240D0022E70D00FF24EF
:1014A000002330E7002C5DD1002B7DD0002A00D135
:1014B00017E79B185A0100D456E73E4A0400134030
:1014C0000FE7002C1ED1002B2FD1002A65D013006E
:1014D0000D0006E701226DE7002C1FD1002B59D02B
:1014E000C04300280BD0FF2E4FD01B285EDC1D0010
:1014F0002024C540201A8340581E83412B439B184B
:10150000340058E7002B1CD1002A49D013000D00ED
:10151000FF24E6E6130034000D00E2E6FF2E34D08F
:101520008024E40440422343DFE7002A00D1D8E6C8
:101530008027981AFF04074000D14DE7D31A0D0009
:10154000CFE6FF24002A00D1CBE68020DB08C003D1
:10155000034204D0D208024201D113000D00DB0087
:10156000FF24BEE6002B10D0FF24002A00D1B8E6ED
:101570008020DB08C003034203D0D208024200D11E
:101580001300DB000D00FF24ABE61300FF24A8E6E8
:1015900001236EE713003400A3E6002700251EE7B1
:1015A00080270025FF03E9E613009AE60123A6E75A
:1015B000FFFFFF7DFFFFFFFB4302590A4300C20FFD
:1015C0001B0E00207E2B0EDD9D2B0DDC80200004E9
:1015D0000143952B0BDC9620C31AD9400B005842CF
:1015E000002A00D118007047034BD018FBE7963B48
:1015F00099400B00F3E7C046FFFFFF7F70B500285E
:1016000030D0C317C5185D40C40F280000F034FC6B
:101610009E231B1A962B0DDC9622D21A95406A0245
:10162000520AD8B25202C005520AE40702432243CA
:10163000100070BD992B19DC9922D21A9540124ADC
:101640002A40690704D00F210D40042D00D0043238
:10165000510103D50C4B1A409F231B1A9201520AC9
:10166000D8B2DFE7002400200022DBE705222E00AD
:10167000121AB921D6402A00C91A8A40551EAA4119
:1016800035001543DBE7C046FFFFFFFBF0B55646CC
:101690004D4644465F46F0B41D000E034C00CB0F90
:1016A00087B0070092468146360B640D98466AD093
:1016B0006D4B9C4235D08022430F12041343F60039
:1016C0001E43C3009946694B00279C46002364448F
:1016D00002932B0368001B0BED0F51469B46400DF8
:1016E000009500D178E0604B98426CD05B46DA0000
:1016F0004B0F802109040B4313439B465346D900EB
:101700005A4B9C46002360444246201A6A40924647
:1017100001901F430F2F00D9B0E05548BF00C059BA
:101720008746374300D088E00023994602330827D4
:1017300000260293CDE74346B34649460093029BF9
:10174000009A9246022B00D0BFE1002153460122AD
:10175000002689461A40444B002136030C0D24050F
:10176000360B2643434C1B0526401E437600D2070A
:10177000760816434846310007B03CBC904699466F
:10178000A246AB46F0BD330003434FD0002E00D13C
:10179000BCE1300000F070FB03000B3B1C2B00DDB4
:1017A000ADE11D220100D31A08393A008F408E4066
:1017B000DA40B9461643304B00279C46002360446C
:1017C0004442029385E753465A4613432CD10023E3
:1017D00000219B46023397E70B4320D05B46002B4A
:1017E00000D19EE1584600F047FB03000B3B1C2B49
:1017F00000DD8FE102005946083A91408B461D21D9
:10180000CB1A5146D9400B0059460B4351469B46D3
:101810009140194B9C4660444042002374E70023EA
:1018200000219B4601336FE703236DE700239946B0
:1018300001330427002602934BE703230C2702936E
:1018400047E70122D51A382D00DCB0E153461A4093
:1018500000210023002689467EE700238026994642
:1018600000223603004B77E7FF07000001FCFFFF73
:10187000B8200008FFFF0F80F30300005E4500D989
:1018800072E100D16DE1019B4D46013B01930023C4
:10189000340002935B461E020B0E1E430B020393A1
:1018A000330C994633041B0C494620000093FFF784
:1018B00073FA009B370043430600494620009846D0
:1018C000FFF7F0FA2C0C09040C43A04509D9E419E0
:1018D000731EA74200D95CE1A04500D859E1023E41
:1018E000E4194346E41A49462000FFF755FA03007D
:1018F000009A80465343494620009B46FFF7D2FAA0
:101900002A040904120C0A4393450DD94346D219FF
:10191000013B974200D93AE1934500D837E10223D1
:101920005B429C46D219E0445B46D21A43463604D9
:1019300033439B460399180C0B0C1D0005930904B7
:101940005B46090C0C001B041B0C444304915943D7
:101950006B4368431B190D0CEB189C4203D9802480
:101960006402A44660441C0C09041B04090C2018E2
:101970005D18824200D2DEE000D1D7E0161A029B49
:101980009C465D1BAC459B415B42F61AB74200D1B9
:1019900006E149463000FFF7FFF9009B040043438E
:1019A000494630009846FFF77DFA2E0C09040E4395
:1019B000B04509D9F619631EB74200D9F3E0B04526
:1019C00000D8F0E0023CF6194346F31A49461800E5
:1019D0000293FFF7E1F9009B060043434946029852
:1019E0009846FFF75FFA2D0409042D0C0D43A84516
:1019F00009D9ED19731EAF4200D9D6E0A84500D829
:101A0000D3E0023EED192404210043463143049EF5
:101A1000059A3000ED1A0B040C0C1B0C584366435E
:101A2000534354439A19030C9B189E4203D98022B6
:101A30005202944664441A0C00041B04000C14194E
:101A40001B18A54250D34DD001231943964A019B40
:101A500094466344002B00DCF3E64A0709D00F22CA
:101A60000A40042A05D00A1D8A42894149428B4412
:101A700011005A46D20108D55A468C4B1A4093465B
:101A80008022D2009446019B6344894A934200DD40
:101A90005BE65A46C90850070843560251460122E0
:101AA0005B058146360B5B0D0A4055E680231B0320
:101AB0001E4211D05A461A420ED15E461E433603CC
:101AC000360B2A0089467B4B46E6032B00D1E1E02A
:101AD000012BBBD11A40BBE61E433603360B4246F0
:101AE000744B39E6002BB1D07D194A1EAF4252D952
:101AF0001100A542A8D1039A9A42A5D1A6E70300F6
:101B00003E00283B9E400023994654E600F0B4F97D
:101B1000203041E603005246283B9A40002193467C
:101B200077E6504600F0A8F920305EE6029B0026DA
:101B3000AB4200D323E7039E0299B4466144884632
:101B4000B045B6415B467642F619B218013B0291A8
:101B5000974213D290424FD800D18EE0161A9B467E
:101B60000DE7894500D28EE674084B46F60735002E
:101B70005B081D434B46DB0702938BE69742EDD192
:101B80000399029CA142E5D93E1A9B46F7E6984686
:101B9000CAE61E00A5E6AC423ED874D0110053E759
:101BA0000121494252E71C000EE71E002BE71F2DC2
:101BB0003CDC20230A0058465B1B9840EA409940D1
:101BC0000243481E81415E461143EE404B0709D057
:101BD0000F230B40042B05D00B00191D99429B418C
:101BE0005B42F61833023CD55346012200211A40CD
:101BF000002601238946AFE502235B429C46039CF5
:101C0000E344A446029B63449846A045B64176420D
:101C1000F6190293B218B1E603988A1E4100814278
:101C2000B6417642F619AD19039161E71F2252427F
:101C3000D31A5A46DA401300202D29D040225846A4
:101C4000551BA8400143481E814107200B43184003
:101C50000026002809D00F2200261A401900042A65
:101C6000BBD10B0070077602360BDB0803439946A5
:101C7000012253461A4000236EE502998D42BBD8DB
:101C80009B4600267BE603989842C5D3110032E7B5
:101C90000020D7E780265B4636031E433603360B0B
:101CA000009A8946034B57E5FF030000FFFFFFFE44
:101CB000FE070000FF0700004200120E511C430205
:101CC000C9B270B55D0AC40F012915DDE021890094
:101CD0008C466D071B0B6244002128000D0D2D055D
:101CE0002B431C4D52052B40520813435B00E40765
:101CF0005B082343190070BD002A15D1002D1FD0A9
:101D0000280000F0B9F80A281DDC0B232A001B1A52
:101D1000DA4013000200153295400F4A1B03121AD5
:101D200052051B0B520DD7E7002D06D080221B0B4E
:101D3000120313436D07094ACEE7084A0023CBE795
:101D400000220023C8E703000B3B9D402B00002529
:101D5000E3E7C046FFFF0F8089030000FF07000094
:101D60004B0070B55E0D0C03751C640A420F6D05C7
:101D70002243C90FC4006D0D012D2ADD3B4BF31822
:101D8000FE2B1ADC002B42DD8001451EA841D2004B
:101D90001043620F0243500704D00F201040042864
:101DA00000D004328020C004104021D00133FF2B2A
:101DB00003D09201520ADBB201E0FF23002252025B
:101DC000520ADB0513435B00C9075B080B4318008D
:101DD00070BD002E07D01443EFD08020D2008004C5
:101DE0000243FF23D7E722430023002A03D0052222
:101DF000D208FF2B03D05202520ADBB2DFE7002ADF
:101E000032D08020C00302435202520AD7E71800A2
:101E1000173014DB8020000402431E20C01A1F2844
:101E20000FDC2500124BF3189D406E1EB5419A4001
:101E30002B0013432200C2401A430023ABE70023C8
:101E4000D5E702256D42EB1A1500DD40202809D0A8
:101E5000084BF3189A401443621E94412200002359
:101E60002A4398E70022F6E70022A8E780FCFFFF5C
:101E700082FCFFFFA2FCFFFF1C2101231B049842F0
:101E800001D3000C10391B0A984201D3000A08390B
:101E90001B09984201D30009043902A2105C4018C2
:101EA0007047C04604030202010101010000000066
:101EB0000000000070B50D4E0D4D0024AD1BAD109F
:101EC00005D0A300F35801349847A542F9D100F09A
:101ED000ADF8084E084D0024AD1BAD1005D0A30091
:101EE000F35801349847A542F9D170BD4004002051
:101EF000400400204004002048040020034B10B59B
:101F0000002B02D0024800F005F810BD00000000D0
:101F1000251F000810B5010000230022002000F05A
:101F20001BF810BD70B5094B094CE41AA41009D078
:101F3000084AA518AD00ED182B68013C9847043DF0
:101F4000002CF9D100F078F870BDC046480400209C
:101F50004C040020FFFFFF3FF8B544465F4656465D
:101F60004D469B462F4BF0B41C68A4235B00050034
:101F7000E0580E00904600284BD043681F2B0DDC24
:101F80005C1C002D21D102339B0044601E500020B8
:101F90003CBC90469946A246AB46F8BD224B002B6E
:101FA0003CD0C820400000E000BF002836D0A4226A
:101FB00000235200A15843600160A050403283507A
:101FC000043283500124002DDDD09A0091468144D3
:101FD000424688214F467A50C4225200904680449F
:101FE00042468739994012688A460A4394464246D7
:101FF00061461160842249465F4652008F50022D8F
:10200000C1D1020055468D32FF3211680D43156073
:10201000B9E720004D30FF30E050AEE701204042EC
:10202000B6E7C046F820000800000000F8B5C0463A
:10203000F8BC08BC9E467047F8B5C046F8BC08BC62
:102040009E4670472020202057656C636F6D6500A9
:1020500020204C6175726F2043616272616C2000B8
:10206000202054656D7065726174757265000000A2
:102070004600000043000000A0110008FE10000808
:10208000FE100008FC1000089211000892110008D0
:1020900088110008FC10000892110008881100083F
:1020A00092110008FC10000898110008981100080F
:1020B00098110008221200087C1800084A1700082E
:1020C0005018000840170008501800085A18000857
:1020D00050180008401700084A1700084A1700085F
:1020E0005A1800084017000836170008361700086D
:0C20F00036170008AC1A00081800002089
:1020FC000300000000127A00000000000000000045
:10210C000102030406070809000000000403002074
:10211C006C030020D403002000000000000000002D
:10212C0000000000000000000000000000000000A3
:10213C000000000000000000000000000000000093
:10214C000000000000000000000000000000000083
:10215C000000000000000000000000000000000073
:10216C000000000000000000000000000000000063
:10217C000000000000000000000000000000000053
:10218C000000000000000000000000000000000043
:10219C000000000000000000000000000000000033
:1021AC000000000000000000000000000000000023
:1021BC0001000000000000000E33CDAB34126DE6C0
:1021CC00ECDE05000B000000000000000000000029
:1021DC0000000000000000000000000000000000F3
:1021EC0000000000000000000000000000000000E3
:1021FC0000000000000000000000000000000000D3
:10220C0000000000000000000000000000000000C2
:10253C00FD1E0008E9000008C100000800000000B2
:0400000508000000EF
:00000001FF
